:02000004901159
:1053000037C30257130383042320030093021000C2
:1053100037C3025713030311232053006F004000CB
:1053200097F2F26F9382023C7390523073500030C8
:105330007350403097E1EE8F9381015217B1EE8F99
:105340001301412C97D2EE8F9382C2AB1703060054
:10535000130343C70B30030097C3EE6F938383F0AF
:10536000638003020B0083FF130303020B3003006F
:105370000B9082FF93820202938303FEE34470FE4C
:1053800097C2F26F9382025A173300001303830F00
:105390000B3003009723EF6F9383C34A63800302AC
:1053A0000B0083FF130303020B3003000B9082FFFB
:1053B00093820202938303FEE34470FE97B2F26F7E
:1053C000938242C4170300001303C3230B3003006E
:1053D00093030041638003020B0083FF1303030266
:1053E0000B3003000B9082FF93820202938303FE33
:1053F000E34470FE97C2F26F9382421A17C3F26FB2
:105400001303C351638A62009303000023A0720058
:1054100093824200E3CC62FE97B2F26F938282FFE6
:1054200017B3F26F13038310638A620093030000C3
:1054300023A0720093824200E3CC62FE9742F36F96
:10544000938242D41773F36F1303C3E4638A620039
:105450009303000023A0720093824200E3CC62FE1B
:1054600097B2F26F9382820C170300001303435D1F
:1054700097C3EE6F938303C0E38E03F6032E0300FE
:1054800023A0C20193824200130343009383C3FF0E
:10549000E34670FEB762000073A002307310300064
:1054A00097B200009382A2CD678002000000000046
:1054B00000000000CAFED00D020000000000000045
:1054C0004253325820312E302E313100000000007E
:1054D00000000000000000000000000000000000CC
:1054E00000000000000000000000000000000000BC
:1054F000756E6B6E6F776E0000000000000000009C
:085500000000000000000000A3
:10560000000000000000000000000000000000009A
:10561000000000000000000000000000000000008A
:10562000000000000000000000000000000000007A
:105A1000E20212904C821190267811903478119005
:105A200054031290686F11905E0312902C7F1190B6
:0C5A30002E751190027D1190A4021290BE
:105A3C006F303044000000006F30D0580000000080
:105A4C006F30F047000000006F3070500000000015
:105A5C0017730D906700038317F310906700C3B49E
:105A6C0017F31090670043B317F31090670043B41B
:105A7C0017F31090670083B317F31090670043B2CD
:105A8C0017F31090670083B117930E90670023F102
:105A9C0017930E906700031F17930E906700431B1C
:105AAC006F80C0650000000017930E906700231AEA
:105ABC006F80806C0000000017B30E906700C3531A
:105ACC0017B30E906700035017E310906700C335AF
:105ADC0017A30E906700A3BF17B30E906700C3D92E
:105AEC00174311906700C31917E3109067006331D7
:105AFC0017E310906700233217E3109067002332EE
:105B0C00174311906700830817E310906700A32CCC
:105B1C0017E310906700832B174311906700A3F0D5
:105B2C00174311906700E3EF17431190670003FED2
:105B3C0017431190670083F6174311906700C30A4F
:105B4C0017B30E906700C35517B30E906700A3529E
:105B5C0017B30E906700035B17B30E906700E35703
:105B6C00174311906700C3F217730E90670023ADB3
:105B7C0017431190670043EB174311906700E3EC58
:105B8C00174311906700A3E817930F906700C35A4F
:105B9C0017930F906700435917930F906700435961
:105BAC0017930F906700635717930F906700033C90
:105BBC0017930F906700033C17930F906700433ABD
:105BCC0017930F906700033C17930F906700233FC8
:105BDC0017A30F906700E39F17A30F906700439DD7
:105BEC0017A30F906700639F17930F906700236BA9
:105BFC0017930F906700E36D6F8040490000000021
:105C0C0017930E90670003AE17930E90670023AEA8
:105C1C006F804048000000006F8080400000000052
:105C2C006F80603E000000006F80C03900000000F3
:105C3C006F802031000000006F80003500000000F4
:105C4C006F804044000000006F8020420000000084
:105C5C006F80803D0000000017930E90670043B9E1
:105C6C006F80C0430000000017930E906700C3A81C
:105C7C0017930E906700039D17930E906700439E39
:105C8C0017930E90670023A017B30E906700037153
:105C9C0017B30E906700836E17431190670083D97A
:105CAC006F706047000000006F70403C0000000007
:105CBC0017930F906700432317930F906700A31D52
:105CCC006F70100D000000006F80001D00000000C0
:105CDC006F80200D000000006F60D04300000000BA
:105CEC006F60903A000000006F60B03F0000000051
:105CFC006F605040000000006F60F03A0000000040
:105D0C006F60903C000000006F60706C0000000041
:105D1C006F70C012000000006F6010630000000084
:105D2C006F60504C000000006F700003000000001A
:105D3C0017D30E906700C38017C30E906700837F44
:105D4C0017C30E906700837D17C30E906700C37D49
:105D5C0017C30E906700837F17D30E906700638084
:105D6C0017D30E906700038317D30E906700E3E000
:105D7C0017D30E906700E3D917D30E90670083D822
:105D8C0017D30E906700A30117D30E90670063DC46
:105D9C0017D30E906700C3D817D30E90670043DC5F
:105DAC0017D30E906700833117D30E906700A32290
:105DBC0017D30E906700632117D30E90670003135F
:105DCC0017C30E906700636217C30E906700635E83
:105DDC0017C30E906700C35F17C30E90670063571D
:105DEC0017C30E906700436517C30E906700A3534B
:105DFC0017C30E906700A34D17030F90670003FCA9
:105E0C0017030F906700632817F30E906700A3A188
:105E1C0017030F906700E32A17E30E906700C32265
:105E2C0017030F906700638517030F906700830BB0
:105E3C0017F30E906700639A17F30E906700A39DFB
:105E4C0017030F906700E30517E30E9067006316C6
:105E5C0017F30E90670043A317F30E906700437C73
:105E6C0017F30E906700C3F917E30E906700C31E7B
:105E7C0017E30E906700E315174311906700A3BC5E
:105E8C0017131090670003E117131090670003DBE2
:105E9C0017131090670043F6171310906700C38C0C
:105EAC00171310906700A3AD171310906700E3AAA7
:105EBC00171310906700638A17E310906700032A8A
:105ECC0017E310906700636717E310906700E328EF
:105EDC0017E310906700A32817E310906700634B3B
:105EEC0017E310906700C32717E310906700632730
:105EFC0017E310906700E36617E310906700835474
:105F0C0017E310906700434A17E310906700235281
:105F1C0017E310906700034817E310906700E34FF6
:105F2C0017E310906700836317E310906700035A20
:105F3C0017E310906700236317E31090670063501A
:105F4C0017E310906700232217E310906700C3211A
:105F5C0017E310906700032117E310906700436369
:105F6C0017E310906700036117E31090670003625A
:105F7C0017E310906700236117E310906700A37478
:105F8C0017E310906700036117E310906700636FCD
:105F9C0017E310906700A37017E31090670043623B
:105FAC0017E310906700036217E31090670003611A
:105FBC0017E310906700436017E3109067000375B8
:105FCC0017E310906700435B17E310906700C35F03
:105FDC0017E310906700035E17E310906700835C73
:105FEC0017E310906700635A17E31090670003598A
:105FFC0017E310906700E35817E3109067002358DD
:10600C0017E310906700435617E310906700435650
:10601C0017E310906700231217E310906700231208
:10602C0017E310906700A31217E310906700631139
:10603C0017E310906700631117E310906700A3112A
:10604C0017E310906700A37817E310906700A3780C
:10605C0017F31090670003A217F31090670003A2C8
:10606C0017D310906700C30F17C310906700A3EAF3
:10607C0017D310906700236517D3109067006356F1
:10608C0017D310906700636217D310906700C36E2C
:10609C0017C30E906700C38517C30E90670043802B
:1060AC0017B30E906700237E17B31090670083031D
:1060BC0017D310906700E3FD17D31090670043F7D8
:1060CC0017D310906700430117D31090670083FF1C
:1060DC0017A31090670003A617A310906700C33C8A
:1060EC0017E310906700238517A31090670003E552
:1060FC0017D310906700C30817D310906700230BB9
:10610C0017D310906700C37117D310906700C36F3B
:10611C0017D310906700633E17D310906700434964
:10612C0017A310906700E3A117B30E906700A37933
:10613C0017D310906700A36617B310906700036B1A
:10614C0017B310906700A3FE17B31090670063C9D4
:10615C0017B310906700A3BF17D310906700A378F4
:10616C0017B31090670083CE17B3109067004328C5
:10617C0017B31090670083CA17B310906700031B06
:10618C0017D310906700C33B17D310906700433AA6
:10619C0017D310906700433E17D310906700033C51
:1061AC0017D310906700033F17D31090670083F448
:1061BC0017D31090670003F917C3109067002327BB
:1061CC0017C310906700232717A3109067006396DE
:1061DC0017B30E906700832117B30E9067006320EE
:1061EC0017B30E906700C32117B30E90670083207E
:1061FC0017B30E906700432217B30E90670003216C
:10620C0017B30E906700631D17B30E906700431C05
:10621C0017131090670043996F70706D00000000A9
:10622C0017E310906700435C17E310906700036658
:10623C0017E310906700036517E310906700836500
:10624C0017E310906700C35C17E31090670083613D
:10625C0017E310906700836217E310906700035BED
:10626C0017E310906700A35A17E3109067000360C0
:10627C0017E310906700036017E310906700035E4C
:10628C0017E310906700835C17E310906700835B43
:10629C0017E310906700835A17E310906700E357D9
:1062AC0017E310906700635317E310906700035FC8
:1062BC0017E310906700035F17E3109067006355B6
:1062CC0017E310906700235517E310906700C35431
:1062DC0017E310906700835417E310906700835402
:1062EC0017E310906700E36417E310906700035402
:1062FC0017E310906700C36017E310906700035B0F
:10630C0017E310906700035B17C310906700A3831B
:10631C0017C310906700C3B717C310906700E3A9A9
:10632C0017C310906700A3BC17C3109067006335A8
:10633C0017D31090670003C817C310906700034B66
:10634C0017C310906700635517C310906700436C18
:10635C0017C310906700A37817D310906700E387DA
:10636C0017D3109067004392173311906700236D79
:10637C0017D310906700838017930F906700036FFB
:10638C0017A30F90670063C217930F906700436DBC
:10639C0017930F906700836A17930F906700C3677A
:1063AC0017930F906700C36817930F90670083676C
:1063BC0017930F906700C36417930F9067000365E2
:1063CC0017A30F90670023C417930F90670083687F
:1063DC0017930F906700637F17930F906700A37F4D
:1063EC0017930F906700E37F17A30F906700C3C14B
:1063FC0017930F906700436517A30F906700C303B3
:10640C0017A30F906700630117A30F906700230079
:10641C0017A30F906700230117A30F906700634029
:10642C0017A30F906700630C17A30F906700A306C8
:10643C0017A30F906700630517031090670023BD27
:10644C0017031090670083C3170310906700C3D61F
:10645C0017031090670023F717031090670043BBD6
:10646C0017B30F906700E33817D30F90670003D86A
:10647C0017B30F906700234517B30F906700C347FE
:10648C0017D30F906700E3C117B30F90670083FE1B
:10649C0017B30F906700631F17B30F906700E328C3
:1064AC0017B30F906700A32E17D30F90670003C686
:1064BC0017D30F90670023BE17B30F90670083ADFF
:1064CC0017B30F906700A3E817D30F906700C3C4EE
:1064DC0017D30F906700A3B517630E906700A3E066
:1064EC0017630E906700C3E217630E90670023E5F5
:1064FC0017630E906700C3E717630E906700A3EA5B
:10650C0017630E906700C3ED17630E9067002304AA
:10651C006F20B04C000000006F4070650000000060
:10652C006F20904D000000006F50800F00000000A5
:10653C006F009016000000006F00B010000000000B
:10654C0017630E906700A39C17A30E906700E34E91
:10655C0017A30E906700835A17A30E906700A35AD7
:10656C0017A30E906700C35117A30E906700434CFE
:10657C0017A30E906700C35717A30E90670083569E
:10658C0017A30E906700635517A30E906700435432
:10659C0017A30E906700035917A30E906700C35BF7
:1065AC00171310906700838917A30E906700E36C94
:1065BC0017A30E9067006361173311906700C34CEB
:1065CC0017D310906700E32917131090670043C688
:1065DC00171310906700C3CC17131090670003BDFE
:1065EC0017E310906700634A17E310906700634944
:1065FC0017E310906700034917E310906700A34856
:10660C0017E310906700C3476F50000B00000000A9
:10661C006F20505100000000170310906700A31B5F
:10662C00170310906700632C1703109067008321E9
:10663C00170310906700232D6F20503200000000CC
:10664C0017A30E906700A354173311906700C3442F
:10665C00173311906700A3421733119067008343DF
:10666C002C0107000700170005020200FFFF0000C5
:10667C0001000000010000000100A00F900F10109D
:10668C00B00F1000B80A380AB0111010080090268C
:10669C00301D2805383304010808182B0401B011EB
:1066AC000800701E04011000701B10007809100007
:1066BC00D809380B1000380BB80A0800D028050090
:1066CC004C380401004006010A00000503000A00D2
:1066DC000A00000500FC100732FC064C08000A00FA
:1066EC00020002000A00000060EA00001400000032
:1066FC00409C00000A00010001009700080A0000FD
:10670C0000000000C06D1190FFFFFFFF00000000B3
:10671C00286E696C29000000286E756C6C290000CD
:10672C00280000006E000000750000006C000000E6
:10673C006C000000290000000000000000000000B8
:10674C00C83E0300F63D0300763103003AF0149086
:10675C0034F01490CA1E0300421F0300E82C0300FF
:10676C0040F0149052F0149044F014904AF01490AD
:10677C00010000000000000000000000000000000C
:08678C0000000087000000007E
:106794000001000044941290010200005A941290E7
:1067A4000203000068941290030200006A9412909D
:1067B400020400007096129004050000489612909E
:1067C400050400004A961290040200000000000034
:1067D40002000000749412901C2500009411000023
:1067E40000000000000000000000000000000000A5
:1067F4000000000000000000000000000000000095
:106804000000000000000000000000000000000084
:1068140000000000000000001E90040000000000C2
:106824000000000000000000000000000000000064
:106834000000000000000000000000000000000054
:106844000000000000008000000000087A0C000036
:10685400EEEF332B1D1CA2000D0000000001000010
:10686400A27C0100AD7C010001010000A27C0100BA
:10687400AD7C0100FFFFFF000000000000000000ED
:10688400FFFFFF000000000000000000D4000080B3
:1068940000500000CC000000030303003CA00100F2
:1068A40040A0010044A001007EA00100F6A0010068
:1068B40010A10100569F01005A9F01005E9F010034
:1068C400909F010008A0010022A0010038B204003A
:1068D4002CB2040030BC1290C6BC129028BD129099
:1068E400F4BD129000180400F4170400A2A10100E2
:1068F4001AA20100000000000000000000000000D7
:106904000000000000000000000000000000000083
:1069140000000000101804000418040014A301006F
:10692400C0A3010024A40100B8A40100FFFFFFFFDD
:10693400FFFFFFFF060000001E00282300000000E8
:106944000000000000000000000000000000000043
:106954000000000000000000000000000000000033
:106964000000000000000000000000000000000023
:1069740000000000B012020000000000000000004F
:106984000000000000000000000000000000000003
:106994000000000000000000AE1202000000000031
:1069A4000500640002056400000000002D01DD0103
:1069B4005A02BB020A034D038703BA03E803110416
:1069C40037045A047A049804B404CE04E704FF0498
:1069D40015052A053E0552056405760587059705C4
:1069E400A705B605C505D305E105EF05FB050806B2
:1069F400140620062C06370642064D065706610685
:106A04006B0675067F06880691069A06A306AC06F1
:106A1400B406BC06C406CC06D406DC06E306EB06C4
:106A2400F206F906000707070E0715071C072207D9
:106A340029072F0735073B07410747074D0753072A
:106A440059075E0764076A076F0774077A077F07A9
:106A5400840789078E07940798079D07A207A7074D
:106A6400AC07B007B507BA07BE07C307C707CC070B
:106A7400D007D407D907DD07E107E507E907ED07E4
:106A8400F107F507F907FD070108050809080D08CE
:106A94001008140818081C081F08230826082A08C8
:086AA4002D0831083408380800
:106AAC0000000000288136C45800B286A19D014622
:106ABC002A842AC202C62123228597E0F26FE7803E
:106ACC00C0022481588019E17D55548000416DFC31
:106ADC00B7A90400AA8403A50983B14597F0F26F06
:106AEC00E780400288C06DD1F1262A8909C98C4003
:106AFC0003A5098397F0F26FE780000980C04A85EF
:106B0C00E9B7388015C12A840841E52EB7A70400DF
:106B1C00AA840C4003A5078397F0F26FE780C006A8
:106B2C0026852320040034807D55F5BF188199C932
:106B3C0036863AC4AE8632C65800014699452AC2FA
:106B4C00BD2914817D55F5BF81450DABB1AB6DAD44
:106B5C006F00607915C11C41139707014183BB7607
:106B6C000714B796040083A6C6775B97E6147827BC
:106B7C00BB11070191E3BDAB7D558280288011C507
:106B8C002A840841E923232004002480AE8709C904
:106B9C003BF40502AA851395070141816F00700C27
:106BAC007D558280788201E5814426857482B7AA5E
:106BBC0004002A8403A50A83AE8991453689328A5A
:106BCC0097F0F26FE78000F4AA8479DD23170100B7
:106BDC0052CC9307F07FCA8663E527019F06000815
:106BEC000000A9472316F1002C0093070010480061
:106BFC0036CA3ECE22C44EC802C2EF10C00E09C91E
:106C0C0003A50A83A68597F0F26FE780E0F769BFCA
:106C1C0092479CC059BF05C12880B7A7040000410A
:106C2C00AA8503A5078397F0F26FE780E0F522852C
:106C3C0020806F00507E8280288005C95C4195C7FA
:106C4C001C4185E72A84484597F0F26FE78040C9DC
:106C5C0009CD484497F0F26FE78080C81844504043
:106C6C00A286894520806F00B01A7D55248001C50D
:0C6C7C000A216F0010337D55828000005B
:106C8800188037C702578357070981460146A19FD5
:106C9800F99BA19F2318F7089F05CE2904000147F7
:106CA8001305F00471359F07803B040083C5F70482
:106CB8001305F004713D1305F00497B0F26FE780F7
:106CC800E0D6B7D7025723A00794054723A0E79437
:106CD80023A6E794148058803B712508C1C12E89EA
:106CE800AA8997B0F26FE780E0D51F07E01F002060
:106CF8000043AA84631EE402268597B0F26FE780FA
:106D080020D58145714597B0F26FE780A0C3AA846A
:106D180031C92304350131051D2897B0F26FE7808A
:106D280060D25C4089CF44C080C0DCC084C301A865
:106D38001C24639C37011305C4001128268597B0CD
:106D4800F26FE780E0D001455480004065B7C14646
:106D58004A86B6851773F26F670023CF1F050100B7
:106D68000080DDB71F0505000080F9BF00000000A6
:106D7800AA8798233B070720930677FF3BE506057C
:106D88003B05072BBB1B072D85468507014509A831
:106D98008507C5B78146D5BF5B15A00A8507198D3C
:106DA8009823130707FDBB6CF70A99E23305A04047
:106DB80082808146E1BF0000000102020303030351
:106DC8000404040404040404050505050505050573
:106DD8000505050505050505060606060606060653
:106DE800060606060606060606060606060606063B
:106DF8000606060606060606070707070707070723
:106E0800070707070707070707070707070707070A
:106E180007070707070707070707070707070707FA
:106E280007070707070707070707070707070707EA
:106E380007070707070707070808080808080808D2
:106E480008080808080808080808080808080808BA
:106E580008080808080808080808080808080808AA
:106E6800080808080808080808080808080808089A
:106E7800080808080808080808080808080808088A
:106E8800080808080808080808080808080808087A
:106E9800080808080808080808080808080808086A
:106EA800080808080808080808080808080808085A
:106EB80008080808080808083881B724002083A7AC
:106EC80084E02A843EC61DC9280097E0F26FE78057
:106ED800C09E224593074400232004001CC45CC0C4
:106EE80097F0F26FE780E0500145B24703A784E0CE
:106EF800638AE70097E0F26FE780C0B51F05061CBC
:106F08000002E5B734813881B724002083A784E0E4
:106F18002A843EC629C1280097E0F26FE780E099ED
:106F28001C44130744006394E7022320040001442F
:106F3800224597F0F26FE780C04BB24703A784E081
:106F48002285638EE70097E0F26FE780A0B01F0408
:106F5800081C0002F1BF1F04061C0002F9BF34819F
:106F68001880EF10E0280145148048802A842E8973
:106F780097F0F26FE78060464C4023200400AA8413
:106F880089C9B7A7040003A5078397F0F26FE780C4
:106F9800E0BF81475CC01CC49F07749704009C43F2
:106FA800DC4791E711281F050109000244804A8542
:106FB800829719200145DDBF268517F3F26F670018
:106FC80043438880AA8ACDC21F0A74970400832786
:106FD8000A00D9CBDC4FC9CBBA89368432892E8BCB
:106FE8008297AA8451C54209135909416346090881
:106FF80097F0F26FE780603E9C402A898DEF80C051
:1070080063800904B7A7040003A50783B14597F077
:10701800F26FE78060AF2A8419C53146CE8597A004
:10702800F26FE780A0FEC0C001EC15281F04030919
:107038000002228584802D201F0404090002D5BF88
:10704800392883270A0001449C4BE5D7DA85568501
:1070580082972A8479DDD6852685013FD9BF4A855E
:1070680017F3F26F6700E3381F0401090002D1B774
:107078001F040009000275BF1F040909000255BF5B
:1070880028809F07749704009C432A8481CBDC4F97
:1070980091C7829701C9A2852080C1BD1F0501093A
:1070A800000224801F0500090002E5BF9F077497AE
:1070B80004009C4381C79C4B91C382871F0501092B
:1070C800000282809F077C97040098439F06809760
:1070D8000400D4C294C28145230707009C420CCB0C
:1070E8008505D0431CC350C3D04318C2D8C3510729
:1070F8003B9AF51401458280288021C92A8497F09B
:10710800F26FE780802D1F07809704005C43639A25
:10711800E70097F0F26FE780C02D1F05031D0002FE
:107128002480D443984398C2984354C30147854662
:10713800DAA7F4A798C7DCC39CC39C4B1CC097F084
:10714800F26FE780002B0145E1BF1F05021D000219
:10715800C1BF488093140501C180BBFB14149F076D
:107168007C97040080432A8997F0F26FE780E02635
:107178005B1494141C486311F9047C2495CF5C407B
:107188006310F4045E248DEF7CA49F0780970400AD
:107198009C431357090105071BA7E42018C8D843C7
:1071A8001CC058C0D84300C3C0C3014497F0F26F55
:1071B800E7802024228544801F04011D0002FDB7BA
:1071C8001F04091D0002DDB71F04011D0002DDB701
:1071D8009F07C097040098439F06B8970400D4C23D
:1071E80094C2130707028145230207FE9C42232607
:1071F800B7FE8505D0431CC350C3D04318C2D8C3BB
:10720800130707033B99F50A01458280788055CE1C
:10721800E9C161C393064700B3B7D502DDEFAE8479
:10722800B385D502B7AA040003A54A83BA8932896F
:1072380097F0F26FE780408D2A8A45C597F0F26F84
:10724800E780A0199F07B8970400C0436311F402B0
:1072580097F0F26FE780E01903A54A83D28597F08B
:10726800F26FE780A0921F050406000274801C409C
:1072780054409CC21C40D4C385472302F4FE9307A4
:1072880084FF232EF4FE232CF4FE930784005CC4B1
:107298001CC4231394FE231434FF232044FFA302A9
:1072A80004FE231A04FE231B94FE231804FE23194C
:1072B80004FE40C000C097F0F26FE7808013832778
:1072C800C4FE01452320F90055B71F050C0600022E
:1072D80071BF1F050D06000251BF1F0503060002FE
:1072E80071B71F050206000251B758801314050133
:1072F8004180BB7E240A9F07C09704009C43AA8450
:107308005B94873097F0F26FE780200D5C44AA8980
:107318006392F4085C20BDCF5C4C13078401639F23
:10732800E7065C5093040402639AF4065C5413075E
:1073380084026395E7067A285E28BA977A206393D1
:10734800E7065C30014999EBB7A704000C4003A598
:10735800478397F0F26FE78060832A895C4401478E
:1073680058A093D607018506A19F9BA7D7205CC488
:107378009F07B89704009C4318C0D8431CD058D026
:10738800D84304C3C4C34E8597F0F26FE780600604
:107398004A8554801F090A060002F5B71F09080626
:1073A8000002D5B71F090B060002F1BF1F09050629
:1073B8000002F9BF488029CE32842E89AA8497F02A
:1073C800F26FE78080011F07C89704005C43639A47
:1073D800E70097F0F26FE780C0011F05030700027E
:1073E80044809843D44398C2984354C30547238C98
:1073F800E7FEA38C27FF239D97FEDCC39CC383A7CE
:10740800C7FF1CC097F0F26FE780A0FE0145C9BF17
:107418001F0502070002E9B79F07C49704009843B5
:107428009F06C8970400D4C294C221078145230C43
:1074380007FE9C42232EB7FE8505D0431CC350C3CC
:10744800D04318C2D8C34107BB99F50A01458280C9
:10745800C167FD172E866304F5008145A1BF1F058E
:107468000807000282802E863B720502854599B77F
:107478001F05080700028280488093140501C18017
:107488003BFC140A9F07C497040080432A8997F09D
:10749800F26FE78080F41B0494081C20B1C35840A5
:1074A8006310E904584493068400639FE6029357E7
:1074B800090185079BA7F420230004005CC09F07EF
:1074C800C89704009C43D8431CC458C4D8430144FB
:1074D80014C3D4C397F0F26FE780A0F122854480EB
:1074E8001F0401070002FDB71F0409070002DDB7EA
:1074F8001F0401070002DDB71E291F07DFFF000078
:107508006361F702C1071EA99F07DC9704009C432B
:10751800D8431CC158C1D84308C3C8C323060500B3
:107528008280BD8BCDB7488237290020832789E028
:107538009F06DC970400D4C23ECE9F07D89704006C
:107548009C4394C20146984292AB05064C4398C3AB
:10755800219ECCC34C439CC15CC3938747023B1A12
:10756800F61081473EC49F07A25404003EC2930709
:1075780000603EC81F04889704009F077FDC1690B0
:1075880001483ECA50C8930700104C000A8542C6FD
:107598003ECCA12FAA8421E1379704008247032714
:1075A800877F9F05E49704001CD4DB17F75C984796
:1075B800130584001367270098C797E0F26FE780E8
:1075C80040DCF247032789E02685638AE70097D0E5
:1075D800F26FE78020489F040C030002DDB7448265
:1075E80028807C252A848DE75C3589C7F917819F17
:1075F8003BF807021C4C379504001CC4A2851305F0
:10760800057997E0F26FE78040D88D475CA4248025
:107618005C48D5B788803DC93BFF150341C2D9C234
:10762800BA8A368AB2892E8B2A8997F0F26FE78058
:10763800C0DA9F07DC970400C043631AF40097F090
:10764800F26FE78000DB1F050403000284804440DA
:107658001C409CC01C40C4C3814444C004C097F073
:10766800F26FE78000D989475CA41E2823203403E1
:10767800A306640164A4232A2401232C2401232EB5
:10768800540104C42310FA000145C9B71F050103BA
:1076980000026DBF1F05020300024DBF1F05000356
:1076A80000026DB71F05030300024DB748802A8406
:1076B800AE8497F0F26FE78040D22A89228597E05E
:1076C800F26FE780A0EC2A8419E515201F04050352
:1076D8000002228544805C25BB8E07023BE117022D
:1076E8003B8607031F040E0300021120DDB74A85FD
:1076F80017F3F26F6700E3CFAA85379504001305E7
:10770800057997E0F26FE780E0CB89475CA423070F
:10771800040099C044C804CC2285D9350144F1B786
:107728001F0406030002D1B70146814541B73880DE
:107738002A8497F0F26FE78040CAAA84228597E0EE
:10774800F26FE780A0E42A8419E535201F040503B9
:107758000002228534805C253B850702BBE01702C6
:107768003B8807031F040E03000221A01F040D031A
:1077780000021120F9BF268517F3F26F670063C76F
:10778800AA85379504001305057997E0F26FE7801D
:1077980060C389475CA4230704000144D9BF1F04C0
:1077A80006030002F9B748802A8497F0F26FE78051
:1077B800C0C22A89228597E0F26FE78020DD2A84FB
:1077C80019E515209F0405030002268544805C25E1
:1077D800BB8D0702BBE017023B8607039F040E031D
:1077E80000021120DDB74A8517F3F26F670063C006
:1077F800AA85379504001305057997E0F26FE780AD
:1078080060BC2307040085475CA47C348144F1FBF9
:107818002285DD31F9B79F0406030002D9B79F0717
:10782800FC97040023A007000145828028809F0759
:10783800049804009CC3DCC39F07F897040098438E
:107848009F06F0970400D4C294C21307C7020144EC
:107858008547231CF7FC9C42232487FE0504D0435C
:107868001CC350C3D04318C2D8C31307C705BB18DD
:10787800F40FEF00D0079F05109804001F058897A4
:10788800040097E0F26FE780C0AF9F0700980400FC
:1078980080C30145248028801C452A8463CB0700C7
:1078A800B7A704000C4903A5478397E0F26FE78068
:1078B800E02D9F07F0970400D44323280400130702
:1078C800C40214D85CD498C2D8C324803881B724A1
:1078D800002083A784E028003EC697D0F26FE78097
:1078E800C0FD9F0704980400C0436310F4022245BA
:1078F80097F0F26FE780E0AFB24703A784E0638FA9
:10790800E70097D0F26FE780E014228597E0F26FE6
:10791800E78080C9130544FDBD3FE1B73481788114
:10792800B72A002083A78AE0AA892E843EC6630569
:107938000516638705169C49638807169C41638969
:107948000716DE213BFD5720B7A7040003AA47838B
:10795800DC4589E79F0700080000DCC544445285E0
:1079680097E0F26FE780A026636C95144844952849
:1079780048C4AA8413050020AD2063E7A4145C441E
:107988001307F0106372F71495201F09F09704008D
:1079980083244900638A240F938744FDF5CB268509
:1079A80097E0F26FE78040C005284C445285414675
:1079B80097E0F26FE780E0192A8A15ED05288327FA
:1079C800490023A024011F0400020003DCC084C373
:1079D80023229900112079A8224517F3F26F670036
:1079E80043A1C14517D3F26F6700E314280017D3EA
:1079F800F26F670083EC2A864C4403A584FEEF00EF
:107A0800B0201C44184023AAA4FC23ACF4FE5C4418
:107A180023A244FF23A804FE23A0F4FE5E2023A68D
:107A2800E4FE13878401D8CC98CC1848239DF4FC35
:107A38008147DCD4DCC89CD09CD4854723AEF4FCB9
:107A480023AA04FE23AEE4FE9307000081CFB7A764
:107A5800040083A7079503A584FECC4B970000007C
:107A6800E70000008947239CF4FC83A784FE0144B7
:107A780023A0F900B24703A78AE02285638AE704B6
:107A880097D0F26FE78000FD1F041102000299B73A
:107A98001F04010200023DBF1F0407020002D9BFF4
:107AA8001F0401020002F9B71F0405020002D9B73A
:107AB8001F04040200027DBF1F04030200025DBF11
:107AC8001F04200200027DB71F04060200025DB7F2
:107AD800748148819F04F89704003729002080406A
:107AE800832789E05B14A45C3EC61C44898B6391A0
:107AF8000712280097D0F26FE78020DCCD2813F713
:107B080017006313071013F7070115C39F0788971A
:107B18000400985329C70547D8D71F040B02000350
:107B280011205DA0224517F3F26F6700838C13F7CD
:107B380047004DC71305C40297E0F26FE780A00D18
:107B48007D20ED9B5EA0652093F7070A91C72285EB
:107B580097E0F26FE78040A95928F59B5EA041287D
:107B680013E617007D5752A038C023260404C18BA2
:107B7800D1C71C4463CE07009F07049804009C43A8
:107B88001307C402D4435CD414D8D44398C2D8C3CE
:107B98009F070098040098409C43DB17F75C5848FF
:107BA800D2A3D8CB184898CB185498D785475EA04D
:107BB80097D0F26FE78000EB0DCD9F078897040000
:107BC8000947D8D785370144B247032789E022857A
:107BD8006384E70497D0F26FE780C0E7A18BA5D74D
:107BE8001305C40297E0F26FE780009CA9BF5E20EE
:107BF800828097E0F26FE780400BE9B785475EA087
:107C080022855139014429BF1F040A02000209BF15
:107C18001F04140200024DBF44819F07009804000E
:107C28009C436374F50081456DB51F05070200028A
:107C38008280488137290020832789E03EC69F0734
:107C4800009804009C43637DF5089F07F89704009B
:107C580080435B14A45C280097D0F26FE780E0C5EE
:107C68005E20A24413F7170025E713F727002DC756
:107C780013F7D7FF93F78702219F91CB5AA00144AE
:107C880011202DA8268517E3F26F670083766E20F2
:107C9800136747005AA005461305C40297E0F26F20
:107CA800E78080F3C5379F070C9804009C43014484
:107CB800858B89C797D0F26FE780E0C0B24703276A
:107CC80089E022856382E70297D0F26FE78080D847
:107CD8001F040A0200026DB71F04090200024DB713
:107CE8001F0407020002D9BF448128802A8405396D
:107CF80001E50840208035BF2480288237240020F1
:107D0800832784E023270100232B01003ECE9F0711
:107D18001A5704003EC2930700403EC83795040036
:107D28009F0788DC16903ECA4C00FD471305457A2C
:107D380023250100231D01002314F1007D3719EDCF
:107D48009F07889704001F07F89704001843DC4F23
:107D5800DB17F75C98471367270098C7F247032794
:107D680084E06386E70097D0F26FE780A0CE248294
:107D78005881B729002083A789E0AE843EC63BF628
:107D880025209F07009804009C43637AF5089F0705
:107D9800F897040080435B14A45C1C44898BC1E7FA
:107DA800280097D0F26FE78040B15E2013F71700E4
:107DB80031EF13F7470031C71309C4024A8597E02A
:107DC800F26FE78040E5054666A0A6854A8597E0FC
:107DD800F26FE78060E005448144224597E0F26F46
:107DE800E780206109C497D0F26FE780C0ADB24741
:107DF80003A789E02685638CE70297D0F26FE780B6
:107E080060C5918366A013F41700F9B701449F0475
:107E18000A020002D9B79F0403020002C9BF9F04E7
:107E280007020002E9B79F0414020002C9B754818F
:107E38005881B729002083A789E02A892E843EC665
:107E4800E9C99F07009804009C436378F50C9F07D5
:107E5800F89704008443DB94A45C280097D0F26F61
:107E6800E780A0A5DE2013F7170011CF71281F05A2
:107E78000A020002B24703A789E06384E70A97D0A1
:107E8800F26FE78020BDC18BADEB9C407CC4DE2047
:107E98003146938504045EB0FE20130504037EB0CA
:107EA800DC443CC09C487CC09790F26FE780001689
:107EB800FC449054FD465CDCDC4C930500022285B2
:107EC8001CD49C50232024035CD49760F26FE78075
:107ED800E07ADC4488486C40130644053E957C44AF
:107EE800419928C4B307F5403CC897D0F26FE780A2
:107EF800A05328CC11280145B5BF97D0F26FE78071
:107F080060B641F58A8759B7224517E3F26F6700D3
:107F1800434E1F0501020002B1BF1F050702000200
:107F280091BF548118809F07189804009C43130739
:107F3800703E6378F70097C0F26FE78020BF014575
:107F480014801F0500040002E5BF38802A8415CD7F
:107F5800AE842E8681459790F26FE780200C130738
:107F6800C400938744FF18C058C018481CC49385A0
:107F7800C4FE9D579BC5F5CAB7070080F98FCD8F02
:107F8800232604001CC8054534800145F5BF41116E
:107F98002A8722C626C4054505C79DC15C430148FA
:107FA80081440144B1468DE31C47054563EAD70087
:107FB800958F94C180C5DCC123A6050184C90145FC
:107FC8003244A24441018280D043370500407D15E8
:107FD80093181600718D63D70800A106AA960508A4
:107FE8009C43D1B76373A4002A848504D5BF488114
:107FF80037290020832789E0AA842E843EC60545B8
:108008009DCC3BEF0515B3E7B4008D8B89CF1F05D9
:1080180040DD169097A0F26FE780C09B930534006F
:10802800F1991384C5FF280097D0F26FE780E088A4
:10803800A2852685193FA24701ED31280545B2479B
:10804800032789E0638EE70097D0F26FE78080A06E
:1080580019200145EDB73E8517E3F26F67006339D4
:108068004481054669B728801F04349804009F0599
:10807800A0CE000008C0F5371C401F073098040048
:108088001CC324805882B729002083A789E02A8945
:108098002E843ECE854415C18DC1480097D0F26F1D
:1080A800E780A0812C004A85DD35AA84124585C069
:1080B80097E0F26FE780E0338544F24703A789E051
:1080C80026856385E70297D0F26FE780A098A247DC
:1080D8001CC0B2475CC0C2471CC4D2475CC4E2475C
:1080E8001CC897E0F26FE780C030C1BF54829F0779
:1080F8003C9804000147DCC39CC30507A1073B1E4D
:10810800F72082801F052082119082801880AA871C
:108118003B74355A3BF535070145BBE3171A9917E8
:10812800939627001D478D830D8FFD171376F70F44
:108138003BF707073E8513F7C601BD4797E0F26F87
:10814800E780C01F26364452606E7C00F32700BCCF
:108158003D473317D7001347F7FFF98F3317D6007A
:108168005D8FBA82739002BC1480F32610BC852000
:10817800BE82739012BC0145C5BFF32620BC81287E
:10818800BE82739022BCC5BFF32630BC8920BE8254
:10819800739032BCCDB7F32640BC1528BE827390CD
:1081A80042BCD1BFF32650BC1D20BE82739052BC86
:1081B800D9B7F32660BC2128BE82739062BC65BF24
:1081C800F32670BC2920BE82739072BC6DB7B3973A
:1081D800E70093C7F7FFF58F3317E600D98F828042
:1081E8001F050009000249B71F0505090002ADBFB8
:1081F8009F0734930400694723AC071223AE071284
:108208000507B1073B1DF75AB79704001F072882D7
:10821800119023AAE7768280504C49430000000061
:108228000000000026630400D6620400A262040075
:1082380014811190866204000C8111908E620400F2
:108248000A6304000145828028802A8497E0F26F3F
:10825800E780A0189F070C1E002080C397E0F26FEC
:10826800E78020190145248048811F043C990400B7
:108278005E242A89AE843BE327028D471EA0FD5762
:108288001CC49C442311240104C85CC097D0F26F1D
:10829800E78000401E205A2436201044AA851F0576
:1082A800548311909790F26FE780C0720848114488
:1082B8008328C508032845011C49584514455041E1
:1082C8000C4193040501484D2AC01F05888311906D
:1082D8009790F26FE78000709F07E8831190A2974C
:1082E80083C7C7FFA2851F05DB8311909B87F40412
:1082F800904305049790F26FE780C06D3B17F42018
:108308004481B7A7040083A7C780858BA5DB97C0E6
:10831800F26FE780207519C189478DB785471EA080
:1083280097D0F26FE780603508C4A1BF28802A84FF
:1083380097E0F26FE780600A9F07101E002080C355
:1083480097E0F26FE780E00A014524807461736B5F
:108358003A25730A746872645069643A30782578EB
:108368000A747970653A307825780A6E65737443B3
:108378006E743A25750A70686173653A25750A0046
:108388006363617573653A307825780A6D63617542
:1083980073653A307825780A6D7476616C3A30786E
:1083A80025780A67703A307825780A6D7374617495
:1083B80075733A307825780A6D6570633A30782598
:1083C800780A72613A307825780A73703A307825DD
:1083D800780A0058252D3032753A307825780A0009
:1083E800021E1D1C0F0E1B1A1918171615140D0C3A
:1083F8000B0A09080706050413121110188097E0E4
:10840800F26FE78080FD01A0488032842E892E8695
:10841800AA849F05CACACACA22859790F26FE780C4
:10842800E0BF9F07CCCCCCCC130509EF22951CC02C
:108438009F07020202021CC5130785009306C51098
:108448001C431F06010101011107B2971CC3E31960
:10845800D7FE9F07807800001CC19F072A57040099
:108468005CC19F07048411902320051064D57CDD2E
:08847800448000000000000038
:1084800028802A8411C9EFF02FFE19C5228520808B
:1084900017130E906700C3362480B7A70400AA857F
:1084A00003A507836F40801C3880B7A70400AA8506
:1084B000AA8403A50783EF40601B2A8411C5A68602
:1084C0000146A685EFB09F87228534803880B7A704
:1084D0000400AA85AA8403A50783EF40C01D2A844F
:1084E00011C5A6860146A685EFB05F85228534803A
:1084F000B7A70400AA8503A507836F40601FB7A72D
:108500000400AA8503A507836F4040163880B7A7EB
:108510000400AA85AA8403A50783EF4020152A84B6
:1085200011C5A6860146A685EFB05F8122853480FD
:10853000C1B70F00F00F8280397106CE2ED232D42F
:1085400036D63AD83EDA42DC46DE09C54C102EC695
:10855000EF30C04FF2402161828001C508416F3089
:10856000A0037D55828048802A84AE843285368976
:1085700001CC3B0206FFEF30306DAA8608404A86E8
:10858000A68540806F2030747D5544806F30C003D5
:108590001880EF30000C0F00F00F14801880EF30BF
:1085A000C00C0F00F00F14801880EF4050190F001E
:1085B000F00F14801880EF40101A0F00F00F148095
:1085C0001880EF30000C19E10F00F00F14806F30AD
:1085D000E0676F30606309C50841FD556F30601971
:1085E0007D55828028802A8411C9BB8205FF2E8593
:1085F0007128AA85084020806F30A0177D552480FF
:1086000001C508416F30402B828028802A8419C917
:108610003B8305FF2E85EF303063AA85084020801C
:108620006F30E0767D55248001C508416F30D00160
:10863000828019C50841A19D17630D906700032A28
:108640007D5582806F30B0576F30F0581880EF3012
:10865000A0050145148011C50A2117630D9067001C
:1086600063C37D558280188011CD0A2197600D90DB
:10867000E780A0C29F070D0300026307F50001E534
:10868000054511A07D5514800145F5BF6F30D05BC5
:108690005C459B85B70498411C49937677001B86FF
:1086A000C7041C42BB9B06019D8B3B9A07019F0799
:1086B0001CA80400D8C31842D8C7584998CB5841C1
:1086C00098C31845BB65070298A7184D0145D8CB3C
:1086D00082801F054613008082801F054913008099
:1086E00082809F0734A804009C2399CF9F071CA871
:1086F00004009C433307B50063ECE700637AE500B0
:108700006368B700014582801F05401300808280A6
:108710001F0501000080828078819F0434A8040036
:108720009C20BDEF2A84EF0070106800FD2949E508
:10873000B24A0349040083491400EF00B0012A8AB9
:10874000EF00D001AA86D2870147639DE604EF00BF
:108750003001054681452D3F25E11F0735A804005E
:1087600085471CA34C40B707109063EAF5041F052A
:108770001CA804001C44104163F3C7003E86938785
:10878000F5FFB2973707809063FBE70210C1E92934
:1087900005E585479CA09F0735A804009C2385E735
:1087A000014519A83E85F10703A647FE6397CA0055
:1087B0004E86CA85F13D5DD57481050779B71F05E1
:1087C00042130080D5BF1F0541130080F5B7888193
:1087D000AE8AB285AA89B284293749E9EF00100729
:1087E00013F939002A8B630209049147B3872741A3
:1087F000B389294113FAF70F63F4F40013FAF40F65
:1088000002C611466C00A5202A8429ED7C00D28680
:1088100033862701D285952009C51F0404000080F6
:1088200091A09109D29AB384444113F9C4FF630B18
:1088300009004A86D68525282A840DE5CA9ACA9950
:10884000B3842441014499CC9F071CA8040002C6AC
:10885000D44311466C0005202A84A6867000A685A4
:10886000292845FD5A85EF00B000228584819F07A5
:108870001CA80400D4434E859DA156856FB03FD3FC
:1088800098812E8BB2852A8AB284A13D2A8445E143
:10889000EF00C07B93793A00AA8B638E090491475D
:1088A000B3873741330A3A4193FAF70F63F4F40080
:1088B00093FAF40F1F091CA8040083264900952889
:1088C0002A8409ED7C00D6865A86D6853385370101
:1088D000EFB0FFCD09C91F0404000080112081A85A
:1088E0005E856F00E0788326C9009D202A84110AE6
:1088F000569BB384544193F9C4FF6DF0638E090015
:108900009F071CA80400D4474E86DA85A1204E9B01
:108910004E9AB38434411DE9F1D01F041CA8040011
:108920005440012819C96D3F1F04040000802285AE
:10893000948111466C0052855DA6A6865A869145A3
:108940006800EFB0DFC665F1544419202A8479B776
:1089500011466C00528531A98880AA842E84513337
:1089600015E92694FD7713174401B3F9F40051C7B4
:10897000E18F0567BA971F0501000080639C3401F1
:10898000631AF400330434418144814A014A25E0EA
:1089900001494A8584809C4B9B87D704844393DAA2
:1089A000E400568A636754019387FAFFB3F73701EF
:1089B00091CB85069F071CA804009827E3EDE6FCF1
:1089C0006389E60261259167FD17FD8C9BA4541D08
:1089D0002A8B0146A6854E85CD2E2A895A85EF0021
:1089E0002069E31809FA33044441D2994DB785460A
:1089F000D1B71F094713008069BFE38534F91F050C
:108A00000100008041BF1880FD26014514809F07AA
:108A10001CA80400C84B19A1B707009013870710C2
:108A20009F063CA9040098C2138707209F0630A91F
:108A3000040098C2138707249F062CA9040098C23B
:108A4000138707309F0638A9040098C29387074010
:108A50001F0734A904001CC301458280B7B7040076
:108A600003A787939D561B45D5CA5C47B70600C030
:108A7000F58FC98F5CC782804881792BAA845523E2
:108A800092470D572A8993F7778093E787029BC710
:108A9000E7EE3EC285473EC402C601444800E926CF
:108AA000854501462E85F52E2521B7B7040083A7FD
:108AB00047939C43858B91CF4A85EF00206D9307A8
:108AC0001400636694001F054413008044813E84B3
:108AD000F1B70145E5BF48819C212A892E848E0784
:108AE00093E717003EC29307F5FF3EC402C66937FD
:108AF000AA840DE548008D2E054702C06362270356
:108B0000B7B7040003A7479382479335290001466E
:108B10001CC393C51500014569265D2E2685448139
:108B20001C08B386E700B307E4009C230507A3876E
:108B3000F6FEE9B758812A8419E001450DA004200A
:108B40003B88040181C80145BB8504021F0545130C
:108B5000008031A0083093052400B53F1DCD54811D
:108B60003C2003493400834944008E0793E71700F3
:108B70003EC226C402C609374800FD240146A68528
:108B800026850526B126B7B7040083A747939C43E3
:108B9000B3D72701858BE39B37FB190471BF18817D
:108BA000E13D99476C0005452306F1002D3711E1A1
:108BB000E135148158852A89AE89B2843684C53757
:108BC000AA8739E522C24800398026C422C6692C0A
:108BD0004A856935A6864E86930500040808EFB0DD
:108BE0001F9DFD5715E513F634003336C0001B06F4
:108BF0009644219E1808814593970501C18363EB34
:108C0000C7000546B2850145692CD924B535AA8728
:108C10003E855485B7B6040083A646931C431107CE
:108C20009B86B6049CC28505C1BF28812A84ED338A
:108C3000A13515E931469F05FC2204004800EFE00C
:108C40003FF348001524854501462E85992C49247B
:108C5000B7B7040083A74793130700F09C439BC753
:108C6000E7D01CC0113D24815880C1676365F606BA
:108C70002A844849B284AE89753D2A8921E9B7B76B
:108C8000040083A7079393D9090113D6F400984FE2
:108C90008146219F1B27372198CF137716000DCBD4
:108CA000984B0556BD8A1B47C7F21B27D71098CB98
:108CB00048403D2448449377857F91C38524B7B7C6
:108CC000040083A7C793054798CB7D334A8554801A
:108CD00005828506D9B71F0901000080C5BF7885C8
:108CE000AA892E8A328436899304000419E001454A
:108CF000A5A0935AE900493325E163739400A28447
:108D00009167FD17B377F9009BA7571D48003EC236
:108D100026C456C6912A4E8591330546B2853285C2
:108D200049227D2213F73400B7B704003337E0003F
:108D300003A547931B0797441408219F8145368656
:108D400093970501C18363EAE700A686A68552854D
:108D5000EFB0FF8519C97D5574859B07B5049C4309
:108D60008505910623AEF6FEE1BFA699269A058CED
:108D7000B5BF78809377F50313070004B304F74079
:108D8000AA892E8A3284B68A63739600B2842686B4
:108D90004E853D202A891DE1058C0DC0269ACE9472
:108DA000A2893B620441930900044E862685092866
:108DB00019E9330434414E9ACE947DF04A8574808B
:108DC000D686D285C5BB2A89D5BF488197F00D903C
:108DD000E780000DE93319ED480026C202C402C63F
:108DE00061202285A5391346190081450145552882
:108DF000C52059314481B7B7040083A707931F07E3
:108E000040A904000145944314C3D44354C3944B74
:108E100014C7D44B9C4F54C71CCB82802880193B6D
:108E20009F0740A9040037B60400984383260693A1
:108E30002A8498C203270693D44354C3944714CB7F
:108E4000D4479C4B54CB1CCFB7B7040083A7C79320
:108E5000054798CB1531228524800000F9040000D5
:108E60000300000000000000B7B7040003A68793CA
:108E70001C41144613D737009375F70F13F706F00C
:108E80004D8F14454C41AD839D8B9D8AC607FD15C2
:108E900093F5F5039BA7D7089BA7B71218C61CC26A
:108EA0008280B7B7040003A78793058985891C438F
:108EB000058A93F7F7EF9BA7A71093F7F7F79BA502
:108EC000B70EDD999BA5C50613E6350010C3828059
:108ED000B7B7040003A787931C43858BF5FF8280F7
:108EE000B7B7040003A6079337070080930600F086
:108EF0001C42D98F13573500019F9BC7D7F09BA702
:108F0000E7109356B5009D8A2D8193F707FC1377E0
:108F1000850333E5D700598D08C28280B7B70400B6
:108F200003A60793930600F0935735001842819FDC
:108F30001B47D7D41B27F72C9357B50013F57700A1
:108F40008D579B47F7E49BA7A72037070040D98F91
:108F50001CC282801F058024040082800545828017
:108F60001F059C240400828039C6FFFFC106004013
:108F700001010004020000000000000019000000D0
:108F8000010000001100000039C6FFFFC1060040CB
:108F90009102002001010004190000005940000066
:108FA000D9490000D9550000596B000059F700005D
:108FB000010000001100000000400000004000001F
:108FC000912900000040000000010600000001039C
:108FD0000500000000030100020002000000000084
:108FE000C8601300000008000400000038240400DA
:108FF000502404002824040068240400FFFFFF001C
:1090000000000800030000001C24040020240400C9
:1090100008240400142404009F070C1F0020884328
:1090200082809F07081F00208843828028801F04B9
:1090300068A904001C2091EB1F0564A90400974057
:109040000D90E780206885471CA0248018809F072A
:1090500068A904009C2399CBEFF04FD301E9FD559B
:109060001F0564A9040010806FF0CFD7014514805C
:1090700018809F0768A904009C2391CBEFF00FD1C3
:1090800019E51F0564A9040010806FF06FD71480E4
:109090004880EFF06FD11F0460A604001C202A89CD
:1090A00091C7EFF02FD18144268544809522AA8470
:1090B00009C54A85EFF00FD0C5BF85471CA0D5BFB5
:1090C0004880EFF06FCE1F0460A604001C202A89A0
:1090D00091E7EFF02FCE8144268544808522AA8433
:1090E0004A8523000400EFF0EFCCFDB74880EFF095
:1090F000AFCB9F0760A604009C232A8991E7EFF07D
:109100006FCB014581454480352A2A844A85AE8447
:10911000EFF04FCA9F0768A604008843DC432295FE
:1091200033348500B385F400A295F1BF18807D3FEC
:109130002166130606D08146EFD01FF614801880F2
:10914000753715811B25B5369581148038809F07AA
:1091500060A604009C238DCB2A84493F1F07007D15
:109160000000B307E4023334E402B384A700B3B7CA
:10917000F4002E943E949D3FE3EF85FE6314B4000B
:10918000E36B95FE014534807D55F5BF38809F0720
:1091900060A604009C238DC72A84893F931754003E
:1091A000B384A700B3B7F4001B8485763E943D3F9B
:1091B000E3EF85FE6314B400E36B95FE0145348054
:1091C0007D55F5BF28802A8415379F0770A60400B7
:1091D00088C3CCC319C008C04CC001452480188086
:1091E00058411C411F0670A6040014421607504245
:1091F0001B27F7769607BE96B3B7F60032979F0502
:1092000068A60400BA9794C1DCC15D3D108049B5E1
:109210001880B92805E1B7B6040003A7868E1C4361
:1092200093E747001CC303A7868E1C4393E72700E0
:109230001CC314801F0580110080E5BF1880B92071
:1092400001451480B7B6040003A7868E1C4393E73C
:1092500017001CC37D5783A7868E9C439183858B03
:10926000BB8307017D1765FB0145814582802DA0E9
:109270001880912001C981209F07E8A8040088C3B5
:10928000014514801F0580110080E5BF9F07E8A8F5
:10929000040023A0070082809F07E8A804009C43E5
:1092A0008C4BD8478847DC43219F9B25B720A19F43
:1092B0001BA5A72082801F050002005782803880EE
:1092C000EFF08FAE1F044DA604001C20AA8481C7B6
:1092D00030806FF02FAEA12285471CA02685CDBF20
:1092E0003880EFF06FAC1F044DA604001C20AA8448
:1092F00081E730806FF00FAC252226852300040023
:10930000CDBF3880EFF04FAA9F074DA604009C23E5
:10931000AA8481EBEFF00FAA1F0460110080228560
:10932000348001222A842685EFF0CFA8CDBF488063
:10933000EFF08FA79F074DA604009C232A8991E791
:10934000EFF04FA701458145448029222A844A85B0
:10935000AE84EFF02FA69F0750A604008843DC439D
:10936000229533348500B385F400A295F1BF1880AF
:109370007D3F1307803EB307E5023335E502B38531
:10938000E502AA9513D5F7001B25B522BD811480EF
:109390001880713F1F0740420F00B307E5023335C5
:1093A000E502B385E502AA9513D5F7001B25B52282
:1093B000BD81148048802A899D3F2A84AE84EFF0C5
:1093C000AF9E9F0758A6040080C3C4C3EFF08F9ED2
:1093D0006306090023208900232299000145448067
:1093E0004880004103294500E53DD13D193FAA844D
:1093F0000DE5EFF06F9B1F0758A604001C43504378
:109400009F0650A6040033878700B337F7004A96BB
:10941000B29798C2DCC2EFF0EF992685448025A868
:1094200091A0B7B6040003A7468E1C4393E727001C
:109430001CC341677D1783A7468E9C439183858B10
:109440003B8407017D1765FB1F0561110080828049
:109450000145828031A8188091209F07E4A804006C
:1094600088C314809F07E4A8040023A0070082801B
:109470009F06E4A804009C4298431367170098C312
:109480009C42799B8C4BD4478847D043A19E98C37C
:10949000219E1B25A6209BA5B62082801F0530C3D8
:1094A00002578280B7170057239007A0B7070052D2
:1094B00023980718239A0718B7170052239607A274
:1094C000239807A2239A07A211472392E7BA239869
:1094D00007BA239A07BA3D47239CE7BA828011C195
:1094E000D1B7B7170057130730332390E7A0B7075A
:1094F000005205472398E718239AE7189306703718
:10950000B71700522396D7A21D472398E7A2239AA4
:10951000D7A22390E7BA2392E7BA9306F0032398E1
:10952000D7BA239AE7BA3D47239CE7BA82802880BE
:10953000EFF08F872A841305F004EFF06F882285FF
:10954000EFF04F879F07BAAA04002380070024800A
:109550009307803E3A053355F50237F7025723103B
:1095600007C2231207C2231407C2231607C2937728
:10957000F50F2318F7C093578500819F231AF7C072
:109580004181231CA7C0231E07C082801F07BAAADF
:1095900004001C2399E785471CA3B7F7025783A74C
:1095A00047C0B7F6025783A506C003A746C083A7E6
:1095B00086C022079B07F720BE9533B7E700B3B7F5
:1095C000F5003E9783A7C6C0E207BE95B3B7F50086
:1095D000BA978607139515009BA5B77E8280014533
:1095E00082801880EF307011EF30B0120945EF30F3
:1095F000500C0145EF30F00E0145EF30100D0145E4
:109600001480188097000E90E780402C85452E85A9
:10961000EF102014014597F00D90E78080840145FC
:1096200014801880014597E00D90E780206719E5C8
:109630000545108017E30D906700436614809F076F
:109640009431040001469F06004200576F03000258
:10965000BB1DF6119F07B831040001469F06004369
:1096600000576F03A000BB1DF608828098230506F3
:109670008907BA9603C7F7FF9AA20283B747005734
:109680001D472390E7242392E7247D572398E72062
:10969000239AE720B7C702575D472392E71E054785
:1096A0002396E71C2398E71C7D472396E71E239803
:1096B000E71E828017430D90670043139F07B8ABE6
:1096C00004008146014794C3D8C36F0050732880BB
:1096D0001304F5FFEF005073553D9F07B8AB04002E
:1096E0009843DC439306803E3307E5403335E5007D
:1096F0009D8D898DB307D702B385D5023337D70245
:10970000BA951F07C0AA0400084354432322070048
:109710003E95B337F500B695BE953D81A1671B25F3
:10972000B522FD17E98FBD811CC399E16373A400C5
:10973000228597E00D90E7800089B7470057239274
:109740000724374700579D472310F7248357872462
:10975000A19FE5FB231A0720B74700577D572398A1
:10976000E72083D78721A19FE5FBB7C7025723983E
:10977000071C37C7025785472316F71C8357871CDA
:10978000A19FE5FB2318071EB7C702577D47239605
:10979000E71E83D7871EA19FE5FB2480188097D002
:1097A0000D90E780407EB7D6025783D706937D574A
:1097B000A19F99CB83D7869313F737009F078431F6
:1097C00004009B87E7049843AA876373A700BA87BE
:1097D00009453BE207031385E7FF148001C937D72A
:1097E00002571E23A19FF19BA19F1EA39317050162
:1097F000C183374700572310F72049ED1F07C0AB3F
:1098000004001C231F0604AC04009F0500AC0400E8
:1098100099EFB796025783D7C683A183FD8B1CC2ED
:1098200083D746838583FD8B9CC185471CA3B7D70F
:1098300002579A33931607011842C18293F616FC19
:1098400006071377E703558F9AB3904196371F07A2
:10985000001F00001B47C7101F06FFE0FFFFF18E2F
:10986000558F219F9AB79A23856693850670136753
:1098700037009AA39A3393860610219F137717FC1B
:10988000219F9AB39A37718F4D8F9AB79A37718FFC
:10989000558F9AB782800F00F00F730050100F00A1
:1098A000F00F0100010001000100828055B1188015
:1098B000F133B74700571D472392E70EB7C702574A
:1098C0000547239AE7122394E7122392E71023987F
:1098D000E710239E070E23980712239AE71023947C
:1098E000E710DA3313672700DAB3148037C702575B
:1098F0005E33A19FF59BA19F5EB38280B74700575F
:10990000239207227D572390E722B7C70257239C53
:10991000071E7D472392E71EAD46239CD71E239842
:10992000071C85462396D71C2398D71C2398071E0F
:109930002396E71E2398E71E828038800933B747B5
:10994000005737C402572392070E231A0412231418
:10995000041223120410231804108544231E940EAD
:1099600023189412231A941023140410013B970017
:109970000E90E780008DB7D70257239097845E3012
:1099800093E727005EB03480188037C702575E33F4
:10999000A19FF59BA19F5EB397000E90E7808090FA
:1099A000B7D7025723900784108017030E906700E3
:1099B0004391188037070052835707049F06D0ABA6
:1099C0000400B71500529EA2835747049F06D2ABEE
:1099D0000400370600579EA2835747059F06D6AB63
:1099E000040005459EA283D705A49F06CEAB0400C4
:1099F0009EA2835787549F06CCAB04009EA2835738
:109A000007549F06CAAB04009EA28357C60F9F0649
:109A1000D8AB04009EA28357C7079F06E6AB04009D
:109A20009EA2B787005783D707419F06E8AB040083
:109A30009EA2835747579F06DCAB04009EA2835724
:109A400047559F06DAAB04009EA2835787559F06B1
:109A5000E0AB04009EA28357C7559F06DEAB04000F
:109A60009EA28357073E9F06E2AB04009EA2835747
:109A7000473E9F06E4AB04009EA2835706069F065E
:109A8000C6AB04009EA2835746069F06C8AB0400DF
:109A90009EA28357860A9F06C4AB04009EA28357EA
:109AA000C7041F07D4AB04001EA383D705F91F0703
:109AB000C2AB04001EA3B717005983D7C7801F0786
:109AC000C8AA04001EA3EFE01FF40145E5300145DC
:109AD000EFF04FEF9F07F8AB04008146014794C3B6
:109AE000D8C3B7C6025703A7060F83A7460F9BA785
:109AF000E7201F07CCAA04001CC39F07F432040010
:109B000013D707012398E60EA19F239AF60E108023
:109B100021AC38819F07CCAA0400BA23B7C60257EC
:109B20002398E60E5D2A239AF60E9F07D0AB040019
:109B30006D22B70600522390F6049F07D2AB0400B3
:109B4000692A2392F6049F07D6AB04007922239A50
:109B5000F6049F07CEAB04004922B71500522390AC
:109B6000F5A49F07CAAB04008D2A2390F6549F07E3
:109B7000D8AB04009D2237060057231EF60E8547FA
:109B8000130730112310F610231CE60E1F07E6AB57
:109B90000400B122239EE6061F07E8AB04008122E1
:109BA000378500572318E540239406541F07DCAB84
:109BB00004003522239AE6561F07DAAB040005227B
:109BC000239AE6541F07E0AB0400112A239CE654B5
:109BD0001F07DEAB04002122239EE6541F07CCABF7
:109BE0000400F5282394E6541F07E2AB0400C528BF
:109BF0002390E63E1F07E4AB0400D5202392E63E07
:109C00001F07C6AB0400E1282310E6061F07C8ABF8
:109C10000400F1202312E6061F07C4AB0400C12094
:109C20002314E60A1F07D4AB040055282396E60444
:109C30000D47231CE60A1F07C2AB04004D202398E2
:109C4000E5F81F07C8AA04001623371700597D56E8
:109C50002316D780B7364059239806042398C604A4
:109C60001EAB0545AD381D321F04F8AB04001C4087
:109C700058409F04F0AB0400B307F54088C0CCC047
:109C80003335F500998D898D0A852EC23EC0EFF0DF
:109C90002FF5904018405440DC403307E6403336FF
:109CA000E600958F918F1F0640420F00B306C70252
:109CB00028003337C702B387C702BA9713D7F60015
:109CC0001B27F722BD833AC43EC6EFF04FD10545AE
:109CD000EFE0FFD3EF30C04634819E2382801A2309
:109CE0008280000028230000A08C000040190100A1
:109CF00080320200A003A403A803AC02B003B403A3
:109D0000B803C403C802D002D402D802DC02E802BD
:109D1000EC02F802FC0200000002040208020C023D
:109D20001001140118011C0117850000130585900E
:109D30002320150023222500232435002326450057
:109D400000C944C9232C2501232E350123204503B6
:109D50002322550323246503232675032328850323
:109D6000232A9503232CA503232EB50313050504ED
:109D7000F32880BC732870BCF32760BC732750BCE9
:109D8000F32640BC7326807DF325907DF3220030BE
:109D90000B11F58713050502F32800BC732810BCCE
:109DA000F32720BC732730BCF32600BE732610BEF9
:109DB000F325E0BFF322007C0B11F58713050502A4
:109DC000F328103073284030F327503073270034C5
:109DD000F326103473262034F325003BF322103B86
:109DE0000B11F58713050502F328203B7328303B40
:109DF000F327403B7327503BF326603B7326703BB1
:109E0000F325803BF322903B0B11F58713050502E8
:109E1000F328A03B7328B03BF327C03B7327D03B0C
:109E2000F326E03B7326F03BF325003AF322103A89
:109E30000B11F587130505027326203AF325303AF6
:109E40000B1035802105130585F597050000A10548
:109E50002CC98280177500001305C57D1305050404
:109E60000B01F587739088BC731078BC739067BC46
:109E7000731057BC739046BC7310867D7390957DAC
:109E800073900230130505020B01F587739008BC2F
:109E9000731018BC739027BC731037BC739006BE48
:109EA000731016BE7390E5BF7390027C1305050214
:109EB0000B01F5877390183073104830739057304A
:109EC0007310073473901634731026347390053B67
:109ED0007390123B130505020B01F5877390283B25
:109EE0007310383B7390473B7310573B7390663B3E
:109EF0007310763B7390853B7390923B130505027C
:109F00000B01F5877390A83B7310B83B7390C73B68
:109F10007310D73B7390E63B7310F63B7390053A92
:109F20007390123A130505020B0035807310263A20
:109F30007390353A177500001305C56F832005002F
:109F400003214500832185000322C50000494449BF
:109F5000032985018329C501032A0502832A4502B5
:109F6000032B8502832BC502032C0503832C450399
:109F7000032D8503832DC5037315153402851881C0
:109F800085473EC69F0718AC04008843FD56700005
:109F90002C00EFE00FE47DF5834781003BFAF704E6
:109FA0001545C92C034781009F0708AC04000145F3
:109FB0009B87E7049C438297834781003BF207021B
:109FC0001545F524834581001F056B350400EFE03E
:109FD000AFD64DBF28801F0418AC0400054781464A
:109FE000228695451F05FA34040097300D90E780CE
:109FF000006D19C51F050735040020806FE0CFD321
:10A00000930600601F062935040081451F051E3494
:10A01000040097300D90E780E06F11E90840973019
:10A020000D90E780E0691F0530350400F9B7F14570
:10A03000EFE02FE015453D2C0945952CB7A704000E
:10A0400003A7078283A747829F0620AC040098C21B
:10A05000DCC21F05543504004DB7706D5F73797312
:10A060005F7175657565005B706D5F7379735D20F9
:10A07000706D5F73797320637265617465206D61C3
:10A08000696C206661696C0A00706D5F737973009A
:10A090005B706D5F7379735D20706D5F7379732092
:10A0A00063726561746520746872656164206661BD
:10A0B000696C0A005B706D5F7379735D706D5F73BF
:10A0C00079735F656E7472792E0A005B706D5F73D1
:10A0D00079735D6D61696C2E73746174652073773B
:10A0E000697463683A2025640A0038809F04E01F81
:10A0F0000020804063149400014501A85C4499E36A
:10A100000040CDBF0848829765DD348038809F04C9
:10A11000E01F0020C04063149400014501A85C4882
:10A1200099E34040CDBF084C829765DD348068805C
:10A13000BB723503BBF1350769C21C46DDCF3284E3
:10A140002E8AAA891F09E81F0020EFE0EFC58327A8
:10A150000900AA84C11713870701631FE902268536
:10A16000EFE04FC56145B128AA841DC12300350128
:10A17000A3004501B14622861105AD289C44A9CF14
:10A18000484005053D28C8C021E12685EFD0DF9F66
:10A190001F05050000801DA0982363123703983324
:10A1A000631F47015840C84398C71844D8C7544054
:10A1B000104089202685EFE0EFBF014564809C4B6D
:10A1C00051BF81456FD0DF9C544010402520D840BE
:10A1D0005C40BA9723800700EFE00FBD832749005A
:10A1E000F9DB138704012322E90023A82401DCC83A
:10A1F00098C3D1B7B6856FA08FBB1F050100008043
:10A2000075BF4880BB731503BBF215072E89AA845E
:10A21000EFE08FB91F07E81F0020004341149307A8
:10A2200004016314F700014401A81C206391970204
:10A230001C30639E27011104EFE0CFB77D5519C490
:10A240001C4489C74C40084082970145448000481F
:10A25000F1B71F0501000080D5BF28801F0438AF6B
:10A260000400E1460146B6852285EF903FADA14747
:10A270003EA4248038800684BB7B0508AA84EFE0D6
:10A28000AFB29F0738AF040033879700143381EAD9
:10A290009423C0C7A6A7850694A3854614B3EFE010
:10A2A0006FB1014534801F0501000080E5BF2880A3
:10A2B000BB7A05082A84EFE02FAF9F0638AF040071
:10A2C000338786001C3391C79C22A3000700FD172B
:10A2D0009CA2EFE02FAE014524801F050100008005
:10A2E000E5BF38809F0738AF0400982311EFC44BB7
:10A2F000804BEFE0BFE363E995006394B4006365CE
:10A30000850030806FF0EFB1054534809F0750AF76
:10A3100004009C4B91C3828782809F0750AF04004A
:10A32000DC5391C3828782809F0750AF0400DC57C3
:10A3300091C38287828005CD18419F0750AF0400EA
:10A3400098C35841D8C3184598C75845D8C7184925
:10A3500098CB5849D8CB184D98CF584DD8CF1851D5
:10A3600098D35851D8D3185598D75855D8D78280F4
:10A370005880EFE06FA3AA89AD3711C59D284E859F
:10A3800050806FE02FA31F0450AF04001C44FDD782
:10A3900082972A893B6AF5061C4091C385205C445C
:10A3A00091C33128BB77090B5C4891C38128912068
:10A3B0005C4C91C3A1205C40F9D31120C9B74A85F8
:10A3C0008287253385479F0480AF04009CA01C4CE6
:10A3D00091C32D201C5491C3152088203B160501E4
:10A3E00089479CA02537312001450D37353F393B42
:10A3F00021A025B73B0DF5021C5065BF82879F0742
:10A400006C3A04001B85A70418416F038005F99B73
:10A41000A19F1EA3BB8015046F03A0048605B98904
:10A42000C59BCD8F1EA36F03C003BD9BA19F1EA321
:10A430003B6A06026F03E00216061376061E93F7C8
:10A44000F7E1D18F1EA31E2393E707011EA31E234E
:10A4500093E717001EA382806F03A000BD9BA19FFE
:10A46000F5B71E23A19F0283370700528357C70702
:10A47000A19FBD9BA19F231EF7068357C707A19FDE
:10A48000C19BC98F231EF7068357C70793E70701B0
:10A49000231EF706828078803B7E35079F0494AAAE
:10A4A0000400131A1500B387440198236315B700FD
:10A4B0009C33638FC70CB2892E892A84EFE0CF8E3C
:10A4C000AA8A31E8A120A19FF99BA19F2310F71030
:10A4D00001455128B7170052BB1A0902239007A45F
:10A4E0004A855937252093E717002310F710B387C3
:10A4F000440123802701A3803701568570806FE0D7
:10A500006F8B05472390E7A40545E1BF3707005748
:10A510008357071082803B0214043B7B04050547E8
:10A520003B0C040122858120BB01F9043B03140488
:10A530003B7F040505473B1EE4019920D18FA19F75
:10A540002394F6546DB73B0704051D473B16F406EC
:10A55000052893C7F7FFF18F2394F654E1B7154709
:10A56000C5BF2D47F5B74E86CA8551BD3B040405CE
:10A570001D473B02F406A5BF1547C1B72D4775BF60
:10A58000B7060052854703D68654B397E70082800A
:10A5900074809F0794AA04001B85A7021C21183110
:10A5A00001453BF407049F065C3A04009B87F604D0
:10A5B00088433B6207023355E502828080D19D01CA
:10A5C0000048E8010090D00300800000FC00005724
:10A5D00054050052580500525C050052880500528F
:10A5E00008060052740500521880B727005205472C
:10A5F00023AAE7401D45E12810806F10B061B727FE
:10A60000005223A807408280B72700521F07007D11
:10A61000000023A0E7400D4723A8E7408280388050
:10A62000EFD09FF80147814601469F05883A040014
:10A63000AA841D4597300D90E78040062A849945ED
:10A640001D4597300D90E78060071D45EFD05FF402
:10A6500001CCA286130690079F05603B04001F05EE
:10A66000403B0400EFD05FEDB727005223A807401E
:10A670001F07007D000023A0E7400D4723A8E74007
:10A6800097F00D90E780E03A268530806FD09FF2FA
:10A69000B7A704001F070048E80123ACE7808280C9
:10A6A00025732025643A206F616C5F696E745F6367
:10A6B0007265617465207265743A307825780A0095
:10A6C00048616C436C6F636B5374617274000F006C
:10A6D000F00FAA82739002BF0F00F00F828000007B
:10A6E0000707070607070707070707060007070703
:10A6F00007070707070707070707060605060606F1
:10A700000606030300000606060406060606040005
:10A7100000060606060505050606060606060606E2
:10A7200001010106060206060606060606060606DC
:10A730000606060606060006030018809F072893F3
:10A7400004009843DC432A863A85BE855523058953
:10A7500014803880AA842E84EFD01FE5370700527A
:10A76000835607708547B39797000DC0D58FA19F7B
:10A770002310F770B707005283D707701F07309375
:10A780000400A19F1EA330806FD0DFE293C7F7FFC4
:10A79000F58FF9BFB707005203D587708280B707DE
:10A7A000005283D747701F0732930400A19F1EA356
:10A7B0000A2382809307F5FB3BF2071A1365050213
:10A7C00082809B37A5BE1B95A7BE8280819D937713
:10A7D000350095C315C21C21639CB7001C21639FE3
:10A7E000B7002A96630AC5001C216392B7048280D1
:10A7F00005057D16E9BF7DF2014582809F060101B6
:10A800000101B386D5023B67F6041C4133C7F6004D
:10A810009F07FFFEFEFEBA971347F7FFF98F1F074A
:10A8200080808080F98FD5FF11057116E9BF05057D
:10A8300055BF2A96630CC5001C2198216385E7004B
:10A840003385E740828005058505EDB701458280A7
:10A850002A88AE86B2876302B504F958B308160396
:10A860003387A540118F63E4E8006FD06FB033C722
:10A87000A5000D8B6374B5042A860DC7B297630DCE
:10A88000F6006F036000E5BF850603C7F6FF050607
:10A89000A30FE6FE028381E7C286368582806FF3CE
:10A8A000BFFEFD17137736007DF7BBE4F70498422F
:10A8B000F1171106232EE6FE9106C5BF19EBB3056D
:10A8C000C500369613F73500B307D64001EFBBF944
:10A8D0000704F9D3FD173387F60018233306F80071
:10A8E00018A2C5BFFD15E389C6FA8347F6FF7D169A
:10A8F0009CA1C9BFF1173387F60018433306F8004F
:10A9000018C2F1B728802E8439201C21019C638352
:10A910008700014524802880819D2A8499E9EFD011
:10A92000AFB42A94228524801C20EDDFE38CB7FE8F
:10A93000050493773400EDFB9F0701010101338586
:10A94000F50214401F07FFFEFEFE33C6A600B387C4
:10A95000E60093C6F6FFF58F32979346F6FF758FA4
:10A96000D98F1F0780808080F98F99C71C20DDDB7D
:10A97000E38AB7FA0504DDBF1104E1B72A879377AC
:10A98000370095E314439F07FFFEFEFEB69793C67C
:10A99000F6FFF58F9F0680808080F58F81CF1C2386
:10A9A00089C70507EDBF1C2381E73305A7408280D7
:10A9B0000507F1B71107F9B71DC2930615002A96CE
:10A9C00003C7F6FF9C2119C791C76385C60085069A
:10A9D0006305F7003305F74082808505D5B701454B
:10A9E0008280C89F372D002083278DE0130101DC72
:10A9F0002A8B2E8A13060002814568002326F14225
:10AA00000149EFD0EF97B3072A019C23638B07120C
:10AA100033072B017D2A19EB81498327C142032784
:10AA20008DE04E856389E71AEF00103913D6570081
:10AA3000130701431B06C7048326C6BD054733170A
:10AA4000F700558F232EE6BC1307014305099B072A
:10AA5000F70423AE27BF45BFB307AA00B697330755
:10AA6000CA00BD226394E70C6394B600854619A022
:10AA70008506228632843306D400E36F26FD054422
:10AA8000A2860148FD543306D8006361260D9387E2
:10AA90001400130715006364F700AA842E84938BB7
:10AAA00014005E86B3058A005285EFD0EF8B330C1D
:10AAB000894011C99307F9FF858F63F39700A68733
:10AAC00013841700014CDA89814AB3073B4163FEC6
:10AAD0002701936CF903668681455A85C5395DC1A6
:10AAE000B3073541E3EA27F32A8B338629018346EE
:10AAF000F6FF9307014313D756001B87E70403278C
:10AB0000C7BD8547B397D700F98FBDCF93070143E2
:10AB10009B86D70483A7C6BFB307F940A5CB63F3D1
:10AB2000FA00BE8AD6998147BE8A45B76375F70099
:10AB3000B305A64025BF8545130614002285AE86C1
:10AB400015BF8545AE8601447D5535B7B3079A00DC
:10AB5000B6979C233307CA00AD28639AE700639435
:10AB60008600854619A085064286328829BF63F58E
:10AB7000E70033049640F5B7054413061800C28475
:10AB8000A286E5B7669B95B7B28979BFDE8563F388
:10AB90005B01D6853306BA00CE951822B30646412E
:10ABA00011CB882105068505E309A7FE338796406A
:10ABB000BA999DBFDE86E3F2DAE6FD16B307DA0046
:10ABC0003387D9003120E388E7FEA299E287A9BF45
:10ABD0009C231823828013010143C48038802E8473
:10ABE0008C21AA87E9C1393BAA8755CD0C30C5CD48
:10ABF0001431CDCA30201DE2102018211BA6C5102B
:10AC00004928930715005128D1CE6314E600FD179B
:10AC100059A885079423B528219FF5B7382159C332
:10AC200003483400631A0802220622071B26B620B6
:10AC30001B27D7200C201421930725001B26B63094
:10AC40001B27D7309928B9CE6314E600F917A1A8BD
:10AC5000A120558F2207FDB72431A9C483484400A1
:10AC6000639F080208201B28A8309B25B8201BA63C
:10AC7000C5108C239BA4B4309BA6D42019288D0723
:10AC800029288DC26314E600F51731A83120112060
:10AC9000C5BF1BA7E6108280850794238280A2850A
:10ACA000308081B381473E853480AA8511C51F0558
:10ACB000603000206F10D0238280AA8511C51F0547
:10ACC000603000206F10901A82809377060289EF1F
:10ACD000935715001347F6FFB3D7E700B395C500A8
:10ACE000DD8D3315C5008280B315C5000145828016
:10ACF0009377060289EF939715001347F6FFB397F2
:10AD0000E7003355C5005D8DB3D5C500828033D5CE
:10AD1000C50081458280B367D60081E73285B6855C
:10AD200082800547814763C0060286069BA6C67ED1
:10AD300086079BA7E77E06060607E3D806FE33686C
:10AD4000F700630F0804B288368801468146135322
:10AD5000170013DE180063E70503B30E15413297A1
:10AD6000B332D501B3830541B33FC700338FF6003B
:10AD70006314B800636815017685B38553403A863D
:10AD8000B386EF011B27F33E85833363F7009B28CF
:10AD90000E3F13581800E31C03FA3285B6858280F3
:10ADA0003A86BE86A5BFB367D60081E74685C285D1
:10ADB00082800547814763C0060286069BA6C67E41
:10ADC00086079BA7E77E06060607E3D806FE3368DC
:10ADD000F70063020804AA882E8805831B27F73E24
:10ADE000858313551600B365F700636FD80033836E
:10ADF000C84033BE6800B30ED8406394060163E5D3
:10AE0000C8009A883388CE411B26D53E8582F1F54D
:10AE10004685C2858280AA882E8849BF6357B008BC
:10AE2000AA882E87634BD00081CAB367D60001453C
:10AE30008145639D071082806DDA0548814786064B
:10AE40009BA6C67E86079BA7077F06060608E3D853
:10AE500006FEB365F8000145638F051E8145135357
:10AE60001800135E16006367D702B38EC8402A9895
:10AE7000B3B2D801B303D740B33FA800338FF50076
:10AE80006394E60063E8C800F68833875340428540
:10AE9000B385EF011B28F33E85833363F8001B263F
:10AEA000DE3E8582E31D03FA828091E135F9B30825
:10AEB000A040B33710013307B0401D8F634FD0104F
:10AEC000638B0610B367D60001458145ADD73306C5
:10AED000C040B337C000B306D0409D8E05488147BF
:10AEE00086069BA6C67E86079BA7077F06060608E2
:10AEF000E3D806FEB365F8000145638E051481456D
:10AF000013531800135E16006367D702B38EC84050
:10AF10002A98B3B2D801B303D740B33FA800338F08
:10AF2000F5006394E60063E8C800F6883387534071
:10AF30004285B385EF011B28F33E85833363F80018
:10AF40001B26DE3E8582E31D03FA82803306C04065
:10AF5000B337C000B306D0409D8E054881478606B2
:10AF60009BA6C67E86079BA7077F06060608E3D832
:10AF700006FEB365F8000145F9CD8145135318006D
:10AF8000135E16006367D702B38EC8402A98B3B227
:10AF9000D801B303D740B33FA800338FF5006394C3
:10AFA000E60063E8C800F688338753404285B385DE
:10AFB000EF011B28F33E85833363F8001B26DE3E3A
:10AFC0008582E31D03FA3305A040B337A000B30523
:10AFD000B0409D8D8280E30706EE85458147860659
:10AFE0009BA6C67E86079BA7B77E06068605E3D886
:10AFF00006FE33E5F50035C10145014813D31500C0
:10B00000135E16006367D702B38EC840AA95B3B229
:10B01000D801B303D740B3BFA500330FF800639442
:10B02000E60063E8C800F688338753402E853388EE
:10B03000EF019B25F33E858333E3F5001B26DE3EBF
:10B040008582E31D03FA3305A040B337A000B305A2
:10B0500000419D8D828081458280014581458280AD
:10B06000B307A0407D8DC1676373F5029307F00FAE
:10B07000B3B7A7008E073355F50017D7FFFF032797
:10B0800027CE3A9503450500FD173E958280370788
:10B090000001C147E361E5FEE147F1BF930280088B
:10B0A00073B302306D7113738300136303181203BB
:10B0B0007320033073901034930201010B96E27FEA
:10B0C0009302010827A0B20127A2A20127A492019E
:10B0D00027A6820127A8720127AA620127AC520184
:10B0E00027AE420127A0320327A2220327A49202FF
:10B0F00027A6820293020110F323300023A07200DE
:10B10000F322003016C0F322103416C223A025000B
:10B1100003210500924273901234824273900230F0
:10B1200083220110739032009302010887AD020060
:10B1300007AD420087AC820007ACC20087AB0201BA
:10B1400007AB420187AA820107AAC20187A90202AE
:10B1500007A9420287A4820207A4C20287AF0203A2
:10B1600007AF420387AE820307AEC20387A802047B
:10B1700007A8420487A7820407A7C20487A602057E
:10B1800007A6420587A5820507A5C20587A3020673
:10B1900007A3420687A2820607A2C20687A102076A
:10B1A00007A1420787A0820707A0C20793020101F7
:10B1B0000B86E27F21618B0FF1FF69617300203004
:10B1C000930201010B96E27F9302010827A0B201CE
:10B1D00027A2A20127A4920127A6820127A8720113
:10B1E00027AA620127AC520127AE420127A03203F1
:10B1F00027A2220327A4920227A682024111732AC2
:10B2000020FC52C0F32920344EC2732930344AC482
:10B210000EC6F324003026C87324103422CA12CC80
:10B220000ACE7310013491C119A06F10706017D14C
:10B23000FB1F130121B36F10B0520000000000008B
:10B2400041115D717EE07AE276E472E646E842EA18
:10B250003EEC3AEE36F032F22EF42AF61EF81AFAE6
:10B2600016FC12FE8EE08AE286E482E659718B1F9C
:10B27000F1FF3971F323300023207110732520343E
:10B28000B7050080370600807D16E98D718D6394C7
:10B2900005006FF0FFF231466314C5006FF05FF2F6
:10B2A000F322003016C0F322103416C2F325E0BF9B
